:100000000C94D5040C940D050C940D050C94082447
:100010000C940D050C940D050C940D050C940D0518
:100020000C940D050C940D050C944A210C9422227D
:100030000C94EE0E0C940D050C940D050C940D050E
:100040000C940D050C940D050C940D050C940D05E8
:100050000C940D050C9426210C940D050C940D05A3
:100060000C940D050C940D050C940D050C940D05C8
:100070000C940D050C940D050C940D050C940D05B8
:100080000C940D050C940D050C940D050C940D05A8
:100090000C940D050C940D050C940D050C940D0598
:1000A0000C940D050C940D050C940D0500AF00AEDD
:1000B0000000000000003E5B4F5B3E003E6B4F6B5C
:1000C0003E001C3E7C3E1C00183C7E3C18001C5729
:1000D0007D571C001C5E7F5E1C0000183C18000051
:1000E000FFE7C3E7FF00001824180000FFE7DBE785
:1000F000FF0030483A060E00262979292600407F65
:1001000005050700407F05253F005A3CE73C5A00A3
:100110007F3E1C1C0800081C1C3E7F0014227F220E
:1001200014005F5F005F5F0006097F017F000066CB
:1001300089956A0060606060600094A2FFA29400EC
:1001400008047E04080010207E20100008082A1CE5
:100150000800081C2A0808001E10101010000C1EB1
:100160000C1E0C0030383E383000060E3E0E0600E5
:1001700000000000000000005F0000000007000712
:100180000000147F147F1400242A7F2A12002313F6
:10019000086462003649562050000008070300003A
:1001A000001C224100000041221C00002A1C7F1C70
:1001B0002A0008083E080800008070300000080887
:1001C0000808080000006060000020100804020019
:1001D0003E5149453E0000427F4000007249494976
:1001E00046002141494D33001814127F1000274565
:1001F000454539003C4A4949310041211109070070
:10020000364949493600464949291E000000140074
:1002100000000040340000000008142241001414C3
:1002200014141400004122140800020159090600A8
:100230003E415D594E007C1211127C007F494949B4
:1002400036003E41414122007F4141413E007F490D
:10025000494941007F09090901003E4141517300AC
:100260007F0808087F0000417F4100002040413F97
:1002700001007F08142241007F40404040007F027F
:100280001C027F007F0408107F003E4141413E0078
:100290007F09090906003E4151215E007F091929A5
:1002A000460026494949320003017F0103003F40CF
:1002B00040403F001F2040201F003F4038403F008B
:1002C0006314081463000304780403006159494D62
:1002D0004300007F4141410002040810200000411A
:1002E00041417F00040201020400404040404000C0
:1002F0000003070800002054547840007F2844443D
:100300003800384444442800384444287F00385496
:100310005454180000087E0902001824241C780098
:100320007F080404780000447D4000002040403DE8
:1003300000007F102844000000417F4000007C0442
:10034000780478007C080404780038444444380079
:100350007C1824241800182424187C007C08040429
:10036000080048545454240004043F4424003C40F2
:1003700040207C001C2040201C003C4030403C00C1
:100380004428102844004C9090907C004464544CC5
:1003900044000008364100000000770000000041E2
:1003A000360800000201020402003C2623263C001D
:1003B000000000000000000000000000000000003D
:1003C000C0E0F0F8F81800C0F0FCFEFFFFFFFFFFF0
:1003D000FFFF7E00000000000000000080C0E0E0A1
:1003E000E0E0E0E0E0E0C0800000000080C0E0E08D
:1003F000E0E0E0E0E0E0C080000000E0E0C0C0E05D
:10040000E0E0E00000E0E0C0C0E0E0E0E0E0C0806C
:100410000000000080C0E0E0E0E0E0E0E0E0C0805C
:100420000000000000000000000000000000E0F0FC
:10043000F0F0E0ECEEF7F37020007C7C7C7E007E38
:100440007E7E7F7F7F000080C0E07E5B4F5BFEC0D2
:100450000000C000DCD7DEDEDED7DC00C00000001C
:10046000000000000000000000000000000000008C
:10047000000000000000000000F8FCFEFFE000FFAC
:10048000FFFFFFFFFF80FFFFFFFFFFFFFFFFFF1FDB
:100490000701000000000000000000FFFFFF8100D6
:1004A000000000000081C3C3C30000FFFFFF810004
:1004B000000000000081FFFFFF0000FFFFFF0100C0
:1004C0000000000000FFFFFF010000000001FFFF2F
:1004D000FF0000FFFFFF9D1C1C1C1C1C1C9DDFDF80
:1004E000DF000000000000000000000000000F1FFF
:1004F0003F7F7F7F7F7F3F1E0C001F1F1F3F003FFE
:100500003F3F7F7F7F00307B7F7830202030787FB7
:100510003B0003000F7F0F0F0F7F0F000300000051
:1005200000000000000000000000000000000000CB
:10053000000000000000000000030F1F3F3F3F3F8E
:100540001F1F3F3F7F7F7F3F3F1F3F7F7F7F7F7C1E
:100550007878381C0F000000000000000103070736
:10056000070707070707030100000000010307074B
:100570000707070707070301000000070707000038
:100580000000000000070707000000000000070748
:100590000700000001030707070707070707030114
:1005A000000000000000000000000000000000004B
:1005B000000000000000000000000000000000003B
:1005C000000000000000000000000000000000002B
:1005D000000000000000000000000000000000001B
:1005E000000000000000000000000000000000000B
:1005F00005010902A10185020901A10005091901EE
:1006000029081500250195087501810205010930A9
:1006100009311581257F95027508810609381581F4
:10062000257F950175088106050C0A38021581257C
:100630007F950175088106C0C005010980A101856B
:100640000319012AB700150126B70095017510811D
:1006500000C0050C0901A101850419012AA0021599
:100660000126A002950175108100C005010906A1AF
:10067000018506050719E029E7150025019508758C
:100680000181020507190029EF1500250195F07574
:100690000181020508190129059505750191029549
:1006A0000175039101C005010906A101050719E0C3
:1006B00029E7150025019508750181029501750846
:1006C00081010507190029FF150026FF0095067511
:1006D00008810005081901290515002501950575F2
:1006E000019102950175039101C009023B000201CD
:1006F00000A0FA0904000001030101000921110111
:1007000000012244000705810308000109040100DB
:10071000010300000009211101000122B6000705B4
:10072000820320000112010002000000085346016C
:10073000000100010200010C0343006F0072006E13
:100740000065000000100366006F006F0073007406
:100750000061006E0000000403090400DA0281FF5A
:10076000D9F1DB20A4A62EAF00A0C0D30000A1C801
:10077000D30000AED580A81F408D14200080818258
:10078000838485868788898A8B8C8D8E8F909192C1
:100790009394A0A1A2A3A4A5A6A7A8A9AAABACAD17
:1007A000AEAFB0B1B2B3B4C0C1C2C3C4C5C6C7C88E
:1007B000C9CACBCCCDCECFD0D1D2D3D4003A002C25
:1007C000206B007800556E6465660041646A75733D
:1007D00074005261697365004C6F776572004465FF
:1007E0006661756C74004C617965723A2000E200B4
:1007F00014001A0008001500170029000400160054
:10080000070009000A00E1001D001B000600190096
:100810000500000000000000E00021522800E60072
:10082000130012000C0018001C00340033000F00ED
:100830000E000D000B00E5003800370036001000F8
:100840001100000000000000E7002C002252000010
:1008500031002D022B006700350200001E001F0032
:100860002000210022000000000000000000000025
:100870000000000000000000010001000100000075
:1008800031002D022B0067003500000027002600F4
:1008900025002400230000000000000000000000EC
:1008A000000000000000000001002A00010000001C
:1008B0003102360226022F022F0000001E021F0204
:1008C00020022102220200000000000000000000BF
:1008D00000000000000000000100010023520000A1
:1008E0003102370227023002300000005700560064
:1008F0002502240223020000000000000000000086
:10090000000000000000000001002C0001000000B9
:100910000000000052000000000000000000500035
:1009200051004F0000000000000000000000000027
:1009300000000000000000000100010001000000B4
:1009400000000000520000000000000000004F0006
:1009500051005000000000000000000000000000F6
:100960000000000000000000010001000100202044
:1009700020206162636465666768696A6B6C6D6E8E
:100980006F707172737475767778797A3132333427
:10099000353637383930524542545F2D3D5B5D5C0A
:1009A000233B27602C2E2F20202011241FBECFEFA9
:1009B000DAE0DEBFCDBF04B603FE18C08091E504C7
:1009C0009091E604A091E704B091E8048730904B41
:1009D000A740B04B59F41092E5041092E60410922F
:1009E000E7041092E804E0E0F8E3099511E0A0E0E4
:1009F000B1E0E6EFFCE402C005900D92A837B10724
:100A0000D9F724E0A8E7B1E001C01D92A53EB207E6
:100A1000E1F70E94E81B0C9427260C9400009093A9
:100A20009D0480939C04089590939F0480939E045A
:100A3000089521E030E002C0220F331F8A95E2F7CB
:100A400080919E0490919F04822B932B0E94140509
:100A5000089521E030E002C0220F331F8A95E2F7AB
:100A60002095309580919E0490919F04822393233A
:100A70000E9414050895983098F5863088F5E82F7F
:100A8000F0E086E0989FE00DF11D11248E2F877015
:100A900041E001C0440F8A95EAF783E0F695E795B7
:100AA0008A95E1F7EE0FFF1FEE0FFF1FEE58FB4F89
:100AB00020E030E070E05191DF011197CB01022E70
:100AC00002C0969587950A94E2F7817081958527F3
:100AD000842385278C932F5F3F4F2430310559F7AE
:100AE0000895983078F5863068F5E82FF0E086E0D4
:100AF000989FE00DF11D11249E2F977083E0F695CD
:100B0000E7958A95E1F7EE0FFF1FEE0FFF1FEE58F6
:100B1000FB4F40E050E080E0219130E0092E02C020
:100B2000369527950A94E2F721703327042E01C0E9
:100B3000220F0A94EAF7822B4F5F5F4F4430510532
:100B400059F7089580E008958091A5049091A40438
:100B5000981301C008958F5F8770FACF9091A00419
:100B6000809589238093A004282F277021110DC020
:100B7000891759F09091A20492FF07C08695869537
:100B800086950E9429051092A004089580919904E9
:100B90009091A304892BA0919A04A115F9F090914A
:100BA0002C01911539F09091A1047EE124E831E007
:100BB00097FD03C076E02CE731E0A90190E0FA014F
:100BC00060814F5F5F4F61119F5F672F641B620FF2
:100BD0006111F5CF911110929A048A2B0895982FE4
:100BE0009095809199048923809399040895783091
:100BF000B8F46630A8F48430B0F4E62FF0E096E064
:100C0000799FE00DF11D112490E3899FE00DF11D06
:100C10001124EE0FFF1FE251F84F85919491089532
:100C200080E090E0089581E0FCCF803E9105D9F10D
:100C3000C8F48133910509F482C048F489329105E2
:100C400009F472C08A32910509F480C0089589338D
:100C50009105E9F082389105D1F08533910509F4C9
:100C60005EC00895843E9105D9F148F4823E910515
:100C700039F1833E910549F181EE90E00895863E79
:100C80009105C9F1873E910509F43EC00895209170
:100C9000A1042370211164C02091A20423FF14C079
:100CA00089E290E008952091A10420FD45C0309193
:100CB000A20430FF09C024FD24C083EE90E0089513
:100CC0002091A10422FDF7CF08952091A10422FDD7
:100CD00044C03091A20430FD43C024FFF5CF11C0C1
:100CE0002091A20421FFF0CF8091A10484FD09C0CE
:100CF00087EE90E008952091A10423FFE5CF24FF23
:100D0000F7CF80E090E008952091A10423FD2BC04F
:100D10003091A20431FFE1CF84EE90E0089520915C
:100D2000A10425FFD1CFBCCF2091A10425FD1EC079
:100D30002091A20423FFC8CF89E390E00895209179
:100D4000A10426FFC1CF8AE290E008952091A1047A
:100D500026FFBACF81E390E0089582EE90E00895F7
:100D600080EE90E0089586EE90E0089585E390E0AF
:100D700008959091A10492FF10C041E0282F2471A2
:100D8000243009F040E031E0282F2871283009F0A4
:100D900030E0431711F02CE0822793FF10C041E0B0
:100DA000282F2471243109F040E031E0282F2871E8
:100DB000283109F030E0431711F02CE08227309100
:100DC000A20430FF10C051E0282F2171213009F01A
:100DD00050E041E0282F2871283009F040E05417F6
:100DE00011F029E0822731FF10C041E0282F217146
:100DF000213109F040E031E0282F2871283109F035
:100E000030E0431711F029E0822794FD877E089592
:100E10001F93CF93DF930E941506EC01811522E505
:100E2000920708F05DC0811540E5940708F0DBC02B
:100E3000803E910528F58D3C910508F0ACC0883ABC
:100E4000910578F4853A910508F0A2C081309105AA
:100E500009F441C00497813A9105E8F1C0E0D0E07F
:100E60003AC0885A91094B97C8F7C85AD0E0CC0FBE
:100E7000DD1FCE5BDE4F0990D881C02DD4642BC01E
:100E8000811550E49507F8F4C11580E2D80708F001
:100E9000C3C0C83ED105F8F0CE019A9581159F4197
:100EA000E8F68D2F0E94B906182FCE0199270E94CF
:100EB0001506212F30E0322F2227E901CC27DF71E0
:100EC000C82BD92B08C099270E941506CC27DF70A4
:100ED000C82BD92BD06ACE01DF91CF911F910895F5
:100EE000803842E59407C8F5803652E5950708F04A
:100EF0005BC0C03482E5D807D0F4C03292E5D90790
:100F000008F04BC08C2F8695869520E2829FC00109
:100F10001124C37021E030E0A90102C0440F551F25
:100F2000CA95E2F7EA01C82BD92BDD68D4CF8C2F04
:100F300086958695877050E2859FC0011124C37005
:100F400021E030E0A90102C0440F551FCA95E2F725
:100F5000EA01C82BD92BDC68BECF803C52E595074F
:100F600058F48F71C03AD245A0F590E0982F8827A9
:100F7000EC01C46FD06AAFCF805C9245809708F0D7
:100F80006DCFDC2FCC27CC27DF71C06FD06AA3CF09
:100F9000A497D064A0CFD0659ECFCF71D0E0DC2FD6
:100FA000CC27C16FD06A97CF86958695877020E24F
:100FB000829FC0011124C37021E030E0A90102C06A
:100FC000440F551FCA95E2F7EA01C82BD92BDA68FE
:100FD00082CF0E94B906C82FD0E0DC2FCC27CC27C7
:100FE000DF71D06278CF8F710E94B90665E0D69527
:100FF000C7956A95E1F7CF70D0E0DC2FCC27282F7A
:1010000030E084FF05C054E0220F331F5A95E1F70A
:10101000C22BD32BD0695FCF8D2F8F710E94B90661
:10102000182FCE0199270E941506212F30E0322F6C
:10103000222722273F71282B392BE901D2CFA0E0AC
:10104000B0E0E5E2F8E00C9440258C01E0909E04CD
:10105000F0909F0480919C0490919D04E82AF92AC5
:10106000CFE0D0E0CC24C394D12CC6010C2E02C01A
:10107000880F991F0A94E2F78E219F21892B49F44A
:10108000219798F7B12C8B2DCDB7DEB7E9E00C9402
:101090005C25BC2EB8018C2F0E94F7050E94080722
:1010A000019771F3F0CF0F931F93CF93FC018581CC
:1010B00000811181811591F0611581F0C8010E94B4
:1010C0001F08C82F682FC8010E943B05B8018C2F4C
:1010D0000E94F705CF911F910F910895C8010E94BA
:1010E0007105C82FF3CFCF93DF93D82FC92F0E945C
:1010F0001F086D2F7C2F0E94F7050E940807DF91C3
:10110000CF910895FC0184818115A1F080819181A6
:101110000E947308282F92959F70963099F060F482
:10112000925F9F70923030F4203F89F038F481E074
:10113000283E38F080E008959A5FF3CF81E0243FA5
:10114000C9F7089581E0283E20F0213FF9CF81E0E2
:101150000895089580E00895F894E82FE295EF70DF
:10116000F0E041A18F7021E030E0B90102C0660FCC
:10117000771F8A95E2F7CB01962F9095942391A340
:1011800092A1892B82A378940895282F35EB23030D
:10119000C001112497FF04C080589109892F089538
:1011A00080589F4FFBCF80918C0480FD14C081FD3F
:1011B00014C082FD16C080918B04811581F08E31A0
:1011C00080F420E5829FC00111246EE170E00E944E
:1011D0007A25862F089584E1089588E2089588E0AD
:1011E000089580E5089580918C0480FD17C081FDED
:1011F00017C082FD19C080918A04811599F0883248
:1012000098F428E0829FC001112468E270E00E94F7
:101210007A256115710551F0862F089562E0FCCFA3
:1012200064E0FACF61E0F8CF68E0F6CF81E008959E
:1012300080914004811559F0E0916804F0916904AF
:10124000309729F00190F081E02D0995089580E014
:101250000895A3E0B0E0EFE2F9E00C9447259C018B
:101260008091CC019091CD0182179307A1F030932A
:10127000CD012093CC01E0916804F091690430978E
:1012800051F083E089833B832A830084F185E02D3C
:10129000CE01019609952396E2E00C946325A3E024
:1012A000B0E0E5E5F9E00C9447259C018091CA0186
:1012B0009091CB0182179307A1F03093CB0120933B
:1012C000CA01E0916804F0916904309751F084E01C
:1012D00089833B832A830084F185E02DCE0101962A
:1012E00009952396E2E00C94632590912C019115C9
:1012F000C1F09091A10497FF14C0E82FE695E69500
:10130000E695803FF8F4F0E0EE57FE4F877021E05D
:1013100030E001C0220F8A95EAF78281822B828316
:101320000895ACE7B1E0EFEF90E02D91821751F016
:10133000EF3F19F4211101C0E92F9F5F9630A9F703
:10134000EF3F09F408950E2E000CFF0BE658FE4FF8
:10135000E6CF90912C019115E1F09091A10497FFB7
:1013600018C0E82FE695E695E695803FF0F4F0E0AA
:10137000EE57FE4F877021E030E0A90102C0440F14
:10138000551F8A95E2F7CA0180959281892382834D
:101390000895ECE7F1E09191891303C0DF01119703
:1013A0001C9251E0E238F507B1F708952FB7F89491
:1013B00060912B0470912C0480912D0490912E0447
:1013C0002FBF08950F931F9380914004811529F03A
:1013D0000E94D6091F910F9108950E94D60900918D
:1013E0004204109143042091440430914504600F5D
:1013F000711F821F931FEECF8091C9010895FC01D8
:101400009B018091BF019091C0018617970740F022
:10141000672B29F48091E8008E778093E800C9015A
:1014200040E0009741F4411106C08091E80082FF3E
:101430002FC080E008952091DA012115A9F125300F
:10144000A9F12091E80023FD2DC02091E80022FDA4
:10145000ECCF2091E80020FFE4CF3091F300209101
:10146000F200009719F02830310558F041E028309B
:10147000310509F040E02091E8002E772093E80044
:10148000D0CF41914093F10001972F5F3F4FE9CFBB
:101490008091DA01811541F0853041F08091E800BA
:1014A00083FFC3CF81E0089582E0089583E008952B
:1014B0008091B90187FF13C08091E80082FF06C0C8
:1014C0008091E8008B778093E80008958091DA019D
:1014D0008111F2CF08958091DA018115D9F38091BD
:1014E000E80080FFF8CF8091E8008E77ECCF209164
:1014F000E4003091E50095E6A9018091EC0081704F
:10150000811531F08091E80080FF06C080E00895E9
:101510002091E80022FD1AC08091DA01811589F03E
:10152000853089F08091EB0085FD0FC02091E400AB
:101530003091E5004217530701F39A95E9F684E0EC
:10154000089582E0089583E0089581E00895E8ED2C
:10155000F0E080818E7F80831092E2001092DA00AA
:101560001092E100A0EEB0E08C9181608C938081BC
:101570008F77808319BCA7EDB0E08C918E7F8C9320
:1015800080818F7E80831092B8010895FC01AC01A8
:101590004C5F5F4F8FEF61E39191892728E030E046
:1015A000982F990F87FF09C0892F86272150304037
:1015B000B9F7E417F50781F70895892FF7CF982F2A
:1015C0009093E900242F762F50E0981731F0709116
:1015D000EC002091ED005091F00021FD06C09F5FCE
:1015E000973071F78093E90008953091EB003E7FCA
:1015F0003093EB003091ED003D7F3093ED00309162
:10160000EB0031603093EB007093EC002093ED0021
:101610005093F0002091EE0027FDE1CF0895A0E067
:10162000B0E0E5E1FBE00C944125C8EDD0E0888115
:101630008F7E8883E7EDF0E080818160808384E0A5
:1016400082BF81E08093B80188818E7F888302EE1B
:1016500010E0F80110821092DA0081EEC82ED12C31
:10166000F601108288818F778883888180688883DB
:1016700088818F7D888319BC1092DA011092B7019E
:101680001092D9011092B60190EEE92EF12CF701DB
:1016900080818B7F808388818160888342E060E0E5
:1016A00080E00E94DF0AF60180818E7F8083F8014E
:1016B000808181608083808188608083F701808160
:1016C0008E7F8083888180618883CDB7DEB7E8E034
:1016D0000C945D25E091A5049091A40427E0E91302
:1016E00002C080E00895AE2FB0E02E9FF0011124DB
:1016F000EA55FB4F3181361306C03081381303C0E1
:101700003581341304C0FD013196E770E8CF81E0E4
:10171000089581E08093E00080E28093D8001092E9
:10172000C9008FE19EE40197F1F700C0000087E057
:1017300090EBDC018093E5049093E604A093E7042A
:10174000B093E80488E19CE00FB6F894A8958093E4
:1017500060000FBE90936000FFCF0F931F93CF9355
:10176000DF938B01EA019091DA01943059F580936F
:10177000E9008FEF9091E80095FD06C095ED9A95F0
:10178000F1F700008A95B1F78091E80085FF1AC053
:101790000E94770A811111C08091E80085FD06C082
:1017A0008091E8008E778093E800F2CFF801819174
:1017B0008F018093F100219779F78091E8008E776F
:1017C0008093E800DF91CF911F910F910895CF93FF
:1017D000DF93D82FC92F48E050E0682F792F81E0A0
:1017E0000E94AD0B88E0ED2FFC2FA1ECB1E0019041
:1017F0000D928A95E1F7DF91CF910895BC0140E207
:1018000050E082E00E94AD0B0895BC0146E050E03C
:1018100082E00E94AD0B0895BC0143E050E082E0FD
:101820000E94AD0B0895A0E0B0E0E9E1FCE00C946B
:101830003F25F82EE92EB62EA72E8A018091AC0105
:10184000CC24C394D12C8A3018F48AE0C82ED12C31
:10185000C1E0D0E06B2D7A2D8F2D9E2DF8010995DA
:10186000811116C02196CC16DD0694F0CC9FC001E4
:10187000CD9F900D900D112420E030E045E34A9576
:10188000F1F700002F5F3F4F28173907B9F7E2CF74
:10189000CDB7DEB7EAE00C945B259091A20492FBF1
:1018A000222720F9281779F080FB92F99093A2045F
:1018B0006091A1047091A20484E090E00E9411263E
:1018C00082E00E94AE05089580912C01811559F1A6
:1018D0008091A10487FF27C00E94C60580938301E1
:1018E00040E250E068E474E082E891E00E94BF25A5
:1018F000892BC1F080E2E2E8F1E0A8E4B4E00190D5
:101900000D928A95E1F7E0916804F09169043097AF
:1019100049F086E0809382010480F581E02D82E821
:1019200091E0099508950E94C60580937A0148E0E8
:1019300050E06AE674E08AE791E00E94BF25892BB7
:1019400089F388E0EAE7F1E0AAE6B4E001900D92BD
:101950008A95E1F7E0916804F0916904309711F3FA
:101960000280F381E02D8AE791E0DBCF811539F029
:1019700090919904892B809399040E94640C089596
:10198000811521F00E94EF050E94640C0895A4E0E7
:10199000B0E0EDECFCE00C9446254091270450911A
:1019A00028046091290470912A042FB7F89480913B
:1019B0002B0490912C04A0912D04B0912E042FBFE4
:1019C000841B950BA60BB70B11E084369105A1057E
:1019D000B10578F10E94E209DC01CB010296A11D5C
:1019E000B11D89839A83AB83BC838091250190913B
:1019F0002601815D9B4F20912401422F50E025302C
:101A000010F044E050E0BE016F5F7F4F0E94CC2594
:101A100082E090E00E94AF24182F811551F00E94BF
:101A2000D609609327047093280480932904909327
:101A30002A04812F2496E3E00C946225EF92FF9212
:101A40001F93CF93DF9300D000D00F92CDB7DEB7B6
:101A50007B0180E090E00E94AF24182F811509F4EB
:101A60006DC080911701482F50E0811511F041E0C1
:101A700050E06091180170911901615D7B4FCE01BA
:101A800005960E94CC2540913C0450913D04609104
:101A90003E0470913F042FB7F89480912B049091ED
:101AA0002C04A0912D04B0912E042FBF841B950B04
:101AB000A60BB70B84369105A105B10538F480E378
:101AC00094E00E94C60A9D818917C1F181E090E0EF
:101AD0000E94AF24811509F43FC080911F01482F57
:101AE00050E0853010F044E050E0609120017091AA
:101AF0002101615D7B4FCE0101960E94CC2580E3E0
:101B000094E00E94C60A9D81891326C00E94D609CE
:101B100060933C0470933D0480933E0490933F0493
:101B200089819A81AB81BC81809338049093390478
:101B3000A0933A04B0933B0481E00FC0809130043D
:101B400090913104A0913204B091330489839A8337
:101B5000AB83BC831111E4CF80E0409138045091F5
:101B6000390460913A0470913B04F701408351833A
:101B7000628373830F900F900F900F900F90DF91FF
:101B8000CF911F91FF90EF900895A0E0B0E0EBECB3
:101B9000FDE00C9441257C016B0164E670E088E770
:101BA0000E947122EC0197FD12C000E010E0F701E5
:101BB000E00FF11F849164E670E00E94E022EC01E6
:101BC0000F5F1F4FC016D10611F097FFF0CF0E9494
:101BD000622381E0CD2B09F080E0CDB7DEB7E8E0ED
:101BE0000C945D2580912104811569F080911E047B
:101BF000811549F062E070E08EEA90E00E94C50D28
:101C0000811110921E040895809121048115F9F02C
:101C10000E94D609DC01CB01805A9541AF4FBF4FDE
:101C200080931A0490931B04A0931C04B0931D048A
:101C300080911E0481110BC062E070E08CEA90E09C
:101C40000E94C50D811519F081E080931E0408954E
:101C5000CF93DF93682F81E06A3019F06D3031F453
:101C600080E00E94A80EDF91CF9108958091EC0151
:101C70009091ED0126E0FC01AFEAB1E001900D92F8
:101C80002A95E1F7603E08F458C026E0FC01119265
:101C90002A95E9F7C091EC01D091ED0146E050E0C2
:101CA000BE018FEA91E00E94BF259E01265132407D
:101CB000892B41F1C90145E0969587954A95E1F751
:101CC00041E050E0BA0102C0660F771F8A95E2F743
:101CD000CB016091180470911904862B972BB901E0
:101CE0006B5F7F4FE5E076956795EA95E1F702C077
:101CF000440F551F6A95E2F7842B952B9093190496
:101D0000809318042A5F3F4F4091EE01642F70E0EA
:101D1000C9010E942325481B463010F4240F311DB1
:101D2000211572E0370710F020E030E02A5E3D4FC9
:101D30003093ED012093EC0196CFF6E06F9FB00158
:101D4000112460557F4F46E050E00E94B625A2CF97
:101D5000CF93382FE091EC01F091ED01E651F24084
:101D60002091EE01622F70E0CF010E942325281BF5
:101D7000822F311561F066E00E946E25C82FC15098
:101D800010F4CF91089580E20E94280EF8CF9F01B1
:101D9000280F311D2115324018F080E0E0E0F0E01E
:101DA0008E0F9F2F911D8A5E9D4F9093ED01809322
:101DB000EC01E7CFCF93DF93EC01FE018491811119
:101DC00003C0DF91CF9108950E94280E2196F5CF90
:101DD0000E94DA0E81E00E94A80E08951F921FB69D
:101DE0001F9211248F939F93AF93BF938091D8013B
:101DF000811113C080912B0490912C04A0912D048B
:101E0000B0912E044196A11DB11D80932B04909397
:101E10002C04A0932D04B0932E04BF91AF919F91F9
:101E20008F911F901FBE1F9018952FB7F894809127
:101E30002B0490912C04A0912D04B0912E042FBF5F
:101E400008950E94150F20918F0430919004232B48
:101E5000211521F08093240490932504209191046E
:101E600030919204232B211521F08093220490932A
:101E70002304E0916804F0916904309749F082E00E
:101E800080938D040680F781E02D8DE894E009951C
:101E9000089520918F0490919204309191046115DE
:101EA00009F458C040919004242B292B232B211591
:101EB00031F098E090938B0491E090938A04E3E3EF
:101EC000E80FE33150F4F0E0E75DF94D0C94B025F4
:101ED0000E94D3088195809390040E94210F089559
:101EE0000E94D308F8CF0E94D308819580938F0475
:101EF000F4CF0E94D308FACF0E94F3088093910494
:101F0000ECCF0E94F3088195F9CF0E94F3088195E8
:101F100080939204E2CF0E94F308FACF815D990B7F
:101F200021E030E001C0220F8A95EAF780918E040B
:101F3000822B80938E04D1CF80918C04816080931A
:101F40008C04CBCF80918C048260F9CF80918C047B
:101F50008460F5CF8D3C59F48091900487FF0DC0CB
:101F600010929004211559F410928B0408C08E3CF5
:101F700081F48091900418169CF3211581F08091D2
:101F8000910490919204892B8111A7CF10928A0419
:101F9000A4CF8F3C41F427FFF0CF10928F048091A3
:101FA00090048115E0CF803D19F41216B4F3E5CF0B
:101FB000893D29F413160CF710929104DECF8A3D67
:101FC00019F437FFDACFF8CF8B3D29F497FFD5CF3F
:101FD00010929204D2CF8C3D19F41916CCF3CDCFC8
:101FE0009FE2980F983090F4815D990B41E050E0AA
:101FF000BA0102C0660F771F8A95E2F7CB01809580
:1020000090918E04892380938E04B7CF8D3D31F457
:1020100080918C048E7F80938C04AFCF8E3D21F411
:1020200080918C048D7FF7CF8F3D09F0A6CF8091F2
:102030008C048B7FF0CFCF93C82F8115B9F18CEF33
:102040008C0F813AA8F580912C01811501F18091C6
:10205000A10487FF1CC0EC2FE695E695E695F0E01D
:10206000EE57FE4F828190E04C2F477021E030E028
:1020700002C0220F331F4A95E2F782239323892B54
:1020800081F08C2F0E94A9090E94640C0AC0ECE721
:10209000F1E082E891E02191C21799F38E179F0732
:1020A000D1F78C2F0E9475090E94640CCF9108957E
:1020B00080E28C0F883068F4C77081E090E001C046
:1020C000880FCA95EAF7C0919904C82BC093990468
:1020D000EBCF8BE58C0F833038F42C2F2452330B4D
:1020E000C9010E942909E2CFE8E5EC0FEB3150F479
:1020F000F0E0EE0FFF1FEE5BFE4F808191810E94AA
:102100004F09D4CF83E38C0F833180F661E08C2FAD
:102110000E94490FCBCF811581F19CEF980F913A26
:1021200028F40E94A9090E94640C089590E2980F77
:10213000983050F4877091E001C0990F8A95EAF7C2
:10214000892F0E94EF05EFCF9BE5980F933028F47D
:1021500080E090E00E942909089598E5980F9B314E
:1021600028F480E090E00E944F09089593E3980FCF
:10217000933118F460E00E94490F08951092990479
:1021800080912C01811539F18091A10487FF23C032
:10219000E4E8F1E08EE1DF011D928A95E9F780E045
:1021A00090E00E94290980E090E00E944F0910927F
:1021B000A3040E94640C86E0EDE8F4E0DF011D92C8
:1021C0008A95E9F710928B0410928A0410928C047D
:1021D0000E94210F0895ECE7F1E086E0DCCF0E9439
:1021E000BE102FEF84E39CE0215080409040E1F747
:1021F00000C0000088E19CE00FB6F894A895809399
:1022000060000FBE90936000FFCFAAE2B0E0EBE069
:10221000F1E10C94462589EB91E0FC0101962091B7
:10222000F100208321E0813C9207B9F78091BA0147
:10223000893009F456C0C8F4823009F4B2C0833042
:1022400009F481C0813071F18091E80083FFE7C01B
:102250008091B9019091BA019A3008F0E0C0E92F5D
:10226000F0E0E45CF94D0C94B0258A3009F488C0A4
:102270008B3051F78091B901813231F78091BD01E6
:102280009091BE01892B01F78091E800877F8093B0
:10229000E8000E94580A8091BB0180932C010E94A3
:1022A000BE10D2CF8091B901813A71F68091E800D9
:1022B000877F8093E8008091BD019091BE01892BBA
:1022C00061F060E080E090E070E00E94FF098091A2
:1022D000E8008B778093E800B7CF68E081EC91E06D
:1022E000F3CF8091B901813209F0AECF8091BD0169
:1022F0009091BE01029708F0A7CF8091E800877FF8
:102300008093E8008091E80082FF18C09091F3006C
:102310008091F200029731F48091F100813011F048
:10232000863021F48091F1008093C9018091E8000A
:102330008B778093E8000E94580A86CF8091DA015B
:102340008111E0CF81CF8091B901813A09F07CCF32
:102350008091BD019091BE01892B09F075CF8091CC
:10236000E800877F8093E8008091E80080FFFCCF41
:1023700080912C018093F1008091E8008E77D9CF75
:102380008091B901813209F05FCF8091E800877FA9
:102390008093E8000E94580A8091BC018093B501A7
:1023A00053CF8091B901813A09F04ECF8091E80076
:1023B000877F8093E8008091E80080FFFCCF8091C8
:1023C000B501D8CF803889F0823849F58091BD01B8
:1023D0008F70873020F58093E9008091EB0085FBBA
:1023E000882780F91092E90007C09091D901919552
:1023F00092708091B601892B9091E800977F90931D
:10240000E8008093F1001092F1008091E8008E774F
:1024100023C0811116C08091BB01813011F18091E0
:10242000E80083FF0AC08091E800877F8093E8007E
:102430008091EB0080628093EB00AA96E3E00C941D
:102440006225823061F78091BB01811589F010927D
:10245000E9008091E800877F8093E8000E94580A95
:10246000DECF81E0933009F080E08093D901EFCF97
:102470008091BD018F702FEF280F263080F680935A
:10248000E9002091EB0020FFE2CF933031F48091FE
:10249000EB0080628093EB00DACF9091EB009061CB
:1024A0009093EB0021E030E0A90102C0440F551FDA
:1024B0008A95E2F74093EA001092EA008091EB00DF
:1024C0008860E8CF8111ABCF1091BB011F7780915D
:1024D000E3008078812B8093E3008091E800877F80
:1024E0008093E8000E94580A8091E80080FFFCCFAA
:1024F0008091E30080688093E30083E0111101C0C4
:1025000082E08093DA018BCF8058823008F087CF49
:102510004091BB015091BC014C3D83E0580799F5B7
:1025200083E08A838AE289834FB7F894DE011396A9
:1025300020E03EE051E2E32FF0E050935700849119
:1025400020FF03C082958F703F5F8F708A30C8F084
:10255000895C90E08D939D932F5F243161F74FBF8D
:102560008091E800877F8093E8006AE270E0CE0106
:1025700001960E94FF098091E8008B778093E80024
:102580004ECF805DE6CF2091BD013091BE01852FF9
:1025900099278330910509F160F48130910509F4A0
:1025A00072C0029709F03BCF8BE390E0EAEEF6E0D1
:1025B00029C08132910509F45AC0829709F02FCFC2
:1025C0002115310509F469C02130310509F027CF03
:1025D00086EB90E0E0EFF5E015C0CA0199274130A5
:1025E000B1F18230910509F43AC0892B09F017CF77
:1025F000E7E5F7E0E4918E2F90E0E7E5F7E000975C
:1026000009F40DCF2091E800277F2093E800209166
:10261000BF013091C0018217930708F49C0140E08C
:102620002115310509F03EC041113CC08091E80000
:1026300082FDA1CF8091DA01811509F49CCF85300C
:1026400009F499CF8091E80083FFF0CF94CFE5E4BF
:10265000F7E0E4918E2F90E0E5E4F7E0D0CFE7E3F8
:10266000F7E0E4918E2F90E0E7E3F7E0C8CF211583
:10267000310571F02130310509F0D1CE89E090E0CB
:10268000E5E1F7E0BFCF82E190E0E5E2F7E0BACF25
:1026900089E090E0ECEFF6E0B5CF84E490E0E6EA84
:1026A000F6E0B0CF8091DA01811509F464CF85306E
:1026B00009F461CF8091E80083FD5DCF8091E8004F
:1026C00082FDB4CF8091E80080FFAACF9091F30003
:1026D0008091F2002115310519F08830910550F0F4
:1026E00041E0089709F040E08091E8008E77809300
:1026F000E80096CF44914093F10031962150310982
:102700000196E8CF803809F08ACE8091E800877F73
:102710008093E8008091B7018093F10076CE81111B
:102720007ECE1091BB01123008F079CE8091E80086
:10273000877F8093E8001093B7010E94580A111513
:1027400081F084E08093DA0142E061EC81E00E9454
:10275000DF0A42E261EC82E00E94DF0A8091DA0146
:102760005ECE8091E30087FDECCF81E0EBCF9C0152
:102770004FB7F89480912B0490912C04A0912D04D4
:10278000B0912E044FBF821B930B0895FF920F93BD
:102790001F93CF93DF93C62FD42F122F8115A9F04B
:1027A000609397040E94150F9093AE018093AD0142
:1027B000C77081E001C0880FCA95EAF70E94B60C85
:1027C000CDB7DEB7E5E00C946025809197046813DF
:1027D00033C08091AD019091AE010E94B713883C47
:1027E000910550F500E20D0FCD17A9F0C770FF2439
:1027F000F3948F2D01C0880FCA95EAF70E94C00C90
:10280000083048F48D2F877001C0FF0C8A95EAF7D5
:102810008F2D0E94B60C812F0E941B10812F0E94C9
:102820008B10083068F6D77081E001C0880FDA9508
:10283000EAF70E94C00CC4CFC77081E001C0880FC6
:10284000CA95EAF7F6CFA0E0B0E0E9E2F4E10C9433
:1028500041257C01FC018481811509F478C061E087
:10286000C7010E945308EC01F7018581811509F425
:10287000F4C391819093960490819093950490E293
:1028800090932D01D0939404C09393049E013052F1
:102890002115304220F5F7019681903128F0FE0194
:1028A000FF27ED33F10578F1109297049E01305720
:1028B0002332310508F0D8C384E090E00E94DD2582
:1028C0009093A2048093A104FE01E150F047E2320C
:1028D000F10508F058C0EA5BF94D0C94B0259E0153
:1028E000305421153041B8F29E013A9521153F41EF
:1028F000B0F29E01205A324520323105A8F2CD3384
:10290000D10530F4FE01E259F64FE491E0932D0138
:10291000FE01E851FC47E730F10530F6E859F94D82
:102920000C94B02526E241EE61EE0E94C613809120
:10293000A0048770811559F0F7018581811539F060
:102940008091A20482FF03C082E00E94AE05CDB751
:10295000DEB7E8E00C945D2527E245EE65EEE5CFB5
:1029600026E241EE60EEE1CF27E245EE64EEDDCFF8
:1029700026E241EE62EED9CF27E245EE66EED5CFF4
:1029800028E241E0EBCF8091A10481608093A10413
:102990006091A1047091A20484E090E00E9411264D
:1029A0000E94BE10C4CF8091A20488608093A204CC
:1029B000EFCF8091A1048260E9CF8091A10484606F
:1029C000E5CF8091A1048860E1CF8091A20481606D
:1029D000EDCF8091A2048260E9CF8091A104806153
:1029E000D5CF8091A1048062D1CF8091A104806471
:1029F000CDCF0E94BE108091A1048068C7CF809186
:102A0000A1048C60C3CF8091A2048360CFCF80915A
:102A1000A1048E7FBBCF8091A204877FC7CF809116
:102A2000A1048D7FB3CF8091A1048B7FAFCF809124
:102A3000A104877FABCF8091A2048E7FB7CF809116
:102A4000A2048D7FB3CF8091A1048F7E9FCF809110
:102A5000A1048F7D9BCF8091A1048F7B97CF0E9493
:102A6000BE108091A1048F7791CF8091A104837FC4
:102A70008DCF8091A2048C7F99CF8091A10482FB9D
:102A8000992790F921E0922790FB82F990FB83F936
:102A90007DCF8091A204982F909590FB80F990FBB8
:102AA00081F984CF9091A104892F8F7B96FF806458
:102AB0006DCF0E94BE109091A104892F97FB87F9DA
:102AC000805864CF61E08EE090E00E94F32560CFF3
:102AD00060E0F9CF9091A104892F8F7E94FF8061EF
:102AE00055CF9091A104892F8E7F90FF81604ECFAA
:102AF0009091A204892F877F93FF886057CF89E246
:102B0000C9C280919804811521F085E30E94A9092A
:102B1000C3C289E2FBCF8115A9F0CA353CE7D307D0
:102B200009F484C008F05BC0C1309CE7D90709F400
:102B30007BC0C330ECE7DE0709F470C0C115DC4789
:102B400009F45FC0F701858100811181811509F4C5
:102B500071C0C8010E941F08C82F682FC8010E94B9
:102B60003B05B8018C2F0E94F7050E940807D82F5B
:102B7000C92FF701D580C680C2948FE0C82280910A
:102B8000A00487708115F9F00D2DD114E9F0892F7B
:102B9000807F803461F080E28D0F8830A0F0892F33
:102BA000807E803221F4D23070F0C11461F08091C7
:102BB000A20482FF08C082E00E94AE058091A004BA
:102BC000877001E0811100E0EC2FE295EF70C03CCE
:102BD00008F096C0F0E0E159F94D0C94B025CB35E2
:102BE0002CE7D20729F1CC35DC4709F0ABCF809137
:102BF000A20482FB882780F991E089270E944D0C6E
:102C0000A1CF0E94BE108FEF94E3ECE08150904082
:102C1000E040E1F700C000000E94890B6FEF7FEFFA
:102C200080E090E00E9411260E94EF1081E0E6CF44
:102C300080E0E4CFC8010E947105C82F92CF1C2FFD
:102C40001F70C03110F01295107FD114B9F011151A
:102C500069F080E28D0F883010F0D11109C08091A9
:102C60009904812B809399040E94640C8D2F40C09D
:102C70008091A304812B8093A304F6CF8D2F0E9413
:102C80008B101115E9F180E28D0F883010F0D11111
:102C900004C0812F0E94EF0506C010958091A30407
:102CA00081238093A3040E94640C2AC01C2F1F70F0
:102CB000C07FC03211F01295107FD11549F0D1308C
:102CC00009F46BC0D11409F477C0C114C9F1CECF97
:102CD0008091A20482FD30C0D11469F0111539F041
:102CE00080919904812B809399040E94640C80E068
:102CF0000E941B1005C080E00E948B101111C9CFEB
:102D00000115A9F08091A00480FD11C0F701158282
:102D10008695869586950E941905C7010E94231401
:102D20008091A0048695869586950E94290560E08D
:102D3000C7010E9453080BCED11499F0C11004C0F2
:102D4000812F0E94B60CDCCFF1E0CF12D9CF809159
:102D50009A04912F9823191799F2812B80939A0442
:102D6000CFCFC110CDCF812F0E94C00C90919A047B
:102D7000812F8923811529F0812F809589238093C4
:102D80009A0480919B04912F9823911509F4B8CF50
:102D90001095182310939B04B3CFD11429F026E08B
:102DA000C21608F0ADCFCCCF35E0C31608F0A8CFDF
:102DB000812F0E94C00CA4CFC114D1F3D93349F4A0
:102DC0008FEF97EEE3E081509040E040E1F700C0E4
:102DD00000008D2F0E948B1093CF8C2F86958695A7
:102DE0008370811569F0813009F08ACF8D2F9C2F77
:102DF0009370D11002C080E090E00E944F0980CF14
:102E00008D2F9C2F9370D11002C080E090E00E9423
:102E1000290976CF6D2D8D2F0E94490F71CF8C2FF0
:102E20008370811142C0D1102FC04D2F429546951D
:102E30004770440F440F2D2F2F7030E0042E02C036
:102E4000220F331F0A94E2F780E090E0D4FF09C01C
:102E50008FE090E002C0880F991F4A95E2F78095B5
:102E60009095C695C695C370C230B1F0C33089F055
:102E700040919C0450919D04C13049F0822B932BCA
:102E8000842395230E940F050E94180939CF242B13
:102E9000352B822B932BF6CF822B932B20919C04E6
:102EA00030919D0482279327EDCFD11491F1C0FF7B
:102EB000EBCF4D2F429546954770440F440F2D2F71
:102EC0002F7030E0042E02C0220F331F0A94E2F765
:102ED00080E090E0D4FF09C08FE090E002C0880F4E
:102EE000991F4A95E2F780959095C695C695C3704F
:102EF000C230C1F0C33099F040919E0450919F04BC
:102F0000C13059F0822B932B842395230E94140502
:102F1000BBCF823008F4B8CFCCCF242B352B822BFB
:102F2000932BF4CF822B932B20919E0430919F04FE
:102F300082279327EBCFCF70D11439F08C2F0E94CA
:102F400019058D2F0E94B60C9FCF8D2F0E94C00CAB
:102F50008C2F0E94290598CFD23FB1F170F4D03F59
:102F6000C9F0D13F91F0D11409F463C0C11409F440
:102F70005DC08D2F0E941B1087CFD33F61F1D43FDE
:102F800091F78091A20482FD34C08C2F8F71D114EF
:102F900001F31EC0D114A9F0F5E0CF1608F074CFEC
:102FA000CF7181E090E09C0102C0220F331FCA95CF
:102FB000E2F7E90180919E0490919F0482279D276A
:102FC000A5CF36E0C316EACF8C2F8F71D110C1CFB9
:102FD0000E94190559CF80E090E0D11409F496CFF2
:102FE000CF7181E090E002C0880F991FCA95E2F787
:102FF0008DCFD11489F0CF718C2F0E94190580914B
:10300000A20482FF07C08C2F880F880F880F83606F
:103010008093A0048C2FDCCF81E00E94AE0582E07B
:10302000C81608F431CF0E94AE052ECF8C2F8F71B9
:10303000CFCFC11479F0D93349F49FEFE7EEF3E035
:103040009150E040F040E1F700C000008D2F0E9459
:103050008B101ACF8C2F8F717CCFFE01E851FC476B
:10306000E730F10508F45ACCC6312CE7D20709F055
:1030700052CD90919904811509F443CD892F8A7A14
:1030800091E0811101C090E090939804811509F4BA
:1030900036CD85E30E9475090E94640C48CC80916E
:1030A000E404803178F48091E304811559F0E091D3
:1030B000A5042091A4043091DF044091DE0457E080
:1030C0002E1301C008956E2F70E05E9FF001112451
:1030D000DF01AA55BB4F14968C911497811561F1AD
:1030E00011968C911197831327C08C91841324C05F
:1030F00015968C91159781111FC012968D919C91F8
:10310000A091E004B091E1048A1B9B0B883C9105DF
:1031100098F48091E4048F7080618093E404E45516
:10312000FB4F80818F70806180838EED94E00E94E0
:1031300023140E94A4050895FB013196E770C0CFC7
:10314000ADE0B0E0E6EAF8E10C943C258C0186E0C5
:10315000F801DE01189601900D928A95E1F7F801C9
:10316000E080F580A280B380C4808EED882E84E05C
:10317000982E7090E204711020C0C114D9F0F1149F
:1031800009F419C1C8010E948208811509F413C10C
:1031900087E0F801D40101900D928A95E1F7F1E002
:1031A000CF1206C08091DE049091DF040E94730864
:1031B0000E944F18FF24F39451C0D090E3048091F3
:1031C000E0049091E1049501281B390BD11409F416
:1031D000BAC0283C310508F090C0C11459F3909151
:1031E000DF04C1808091E404803108F058C0C91226
:1031F00014C09091DE049E1110C0F1104AC08F706F
:1032000080618093E4048EED94E00E942314809109
:10321000E404F8018683F12C21C0F1103AC040E0AB
:103220006C2D8E2D0E946A0B40E06C2D8E2D0E941D
:103230006A0BF82E8111EFCF888599850E9473085B
:10324000292F22952F70903470F49F702230A0F0B7
:103250009115B1F0F8019681903190F48F2D2D9653
:10326000EDE00C9458252A5F2F70223068F0C801D9
:103270000E942314FD2CF2CF911511F0811571F3EA
:10328000805E883058F3F3CF803F40F3815F833016
:10329000F9CF8091E40481608093E404BCCFC9122B
:1032A00007C09091DE049E1103C0F11409F46CC0B4
:1032B000C8010E948208811509F47DC0F11409F447
:1032C0007AC08091E404803278F02091DE0430915D
:1032D000DF043A832983BC82AB827D821E828F8386
:1032E000CE0101960E94231487E0F801AEEDB4E010
:1032F00001900D928A95E1F75BCF8091E4048031D3
:1033000050F48EED94E00E94231487E0F4011192B2
:103310008A95E9F780CFC11409F44CCF2091DF04DE
:1033200091812913C5CF9091DE049E11C1CFF11078
:10333000BFCF8683C8010E94231487E0F401119255
:103340008A95E9F737CF283C3105F8F6C11409F41E
:1033500031CFF11481F19091DF048181981321C064
:103360008091DE048E111DC08091E40480FD10C0A8
:10337000803170F08683807F803F39F08681982F7E
:10338000907F905F8F70892B8683C8010E942314E1
:1033900087E0F801AEEDB4E001900D928A95E1F777
:1033A00009CFC8010E94820881119ECF8091E40458
:1033B00081608093E404C8010E942314FBCEABE13A
:1033C000B0E0E5EEF9E10C9446254E8B5F8B688FFB
:1033D000798F8A8F9B8F91111092A3041D8A86E0AA
:1033E000FE017696DE011F9601900D928A95E1F717
:1033F0008B89811529F061E0CE010F960E94530858
:1034000087E0FE013F96DE01189601900D928A95A5
:10341000E1F7CE0108960E94A01881112AC087E02A
:10342000FE013896DE01119601900D928A95E1F722
:103430002091A4044091A5048C858115D1F030E041
:10344000C90101968770992748171906E9F097E096
:10345000929FD001939FB00D1124AA55BB4FFE013E
:10346000319601900D929A95E1F78093A4040E9401
:10347000A40517E08091A5049091A404891312C0BB
:103480006B96E3E00C9462250E94BE101092A40497
:103490001092A50487E0EEEDF4E0DF011D928A951D
:1034A000E9F7E7CF189FC00111248A559B4F0E946E
:1034B000A018811529F38091A50490E001968770EA
:1034C00099278093A504D6CFA6E0B0E0EAE6FAE11A
:1034D0000C9445250E94150F8C0180914604909113
:1034E00047048017910779F019821A820E94150FFC
:1034F000BC0149815A8180E090E00E94DF1910935D
:103500004704009346042696E4E00C946125ACE061
:10351000B0E0EDE8FAE10C943A25FE01319688E03E
:10352000DF011D928A95E9F78EE2E82E81E0F82E00
:103530008F0192E3C92E91E0D92E3F01AA24A394D2
:10354000B12C38E3832E31E0932EF70181917F0176
:103550008F3F09F441C0F894E82FE295EF70F0E056
:1035600021A18F70A50102C0440F551F8A95E2F773
:10357000CA01922F982B91A392A18095892382A3AF
:10358000789400C0E2E3F1E031E0512C21912F3F2B
:1035900089F0A22FA295AF70A05EB0E08C9190E070
:1035A0002F7002C0959587952A95E2F78170811555
:1035B00009F475C080E0582A330F8E169F0631F744
:1035C000F701319780818F3F11F00E94AC0850EADB
:1035D0005A95F1F7D8015C920F5F1F4FCE14DF04AC
:1035E00009F0B3CF48E050E0B3018EEC91E00E94C7
:1035F000BF259C01892B41F088E0F301AEECB1E0DE
:1036000001900D928A95E1F70091D70110E00552E3
:103610001E4F232B09F445C081E08093AB010E942B
:10362000150F9093AA018093A90180914004811500
:1036300009F48EC07E01B9E0EB0EF11C84E0F701C5
:1036400011928A95E9F78091AC018A3008F04BC05D
:103650004EE15DE0B701C8010E94130C811509F429
:1036600065C047EC5CE0B701C8010E94130C8115EE
:1036700009F45CC01092AC018091D60190E044E066
:1036800050E0B70185529E4F0E94BF2521E0209354
:10369000A801892BE9F52C96EFE00C945625832F91
:1036A0008ACF8091AB01811509F4BFCF8091A90128
:1036B0009091AA010E94B713059708F4B6CF44E091
:1036C00050E06EEC71E0C8010E94BF25892B41F0EB
:1036D00084E0EEECF1E0D80101900D928A95E1F7DB
:1036E0001092AB01A2CF8091A6019091A7010E94F8
:1036F000B713843F914008F0ABCF8091A8018115AA
:1037000051F284E0D7011D928A95E9F71092A80141
:10371000E091D601F0E0E552FE4F89859A85AB85B0
:10372000BC8580839183A283B383B5CF8091AC01A4
:103730008F3F39F40E94150F9093A7018093A60143
:10374000DCCF8F5F8093AC018A3008F495CFF2CF45
:10375000F80180819181A281B3818093300490939C
:103760003104A0933204B093330480E394E00E94C8
:10377000C60A80932F04C0903404D0903504E090A2
:103780003604F09037048091A2019091A301A0919A
:10379000A401B091A501C816D906EA06FB0609F4F2
:1037A0007ACFC092A201D092A301E092A401F0923C
:1037B000A5010E94D609C61AD70AE80AF90AC092DA
:1037C0004204D0924304E0924404F092450463CF53
:1037D000CDB7DEB761970FB6F894DEBF0FBECDBF91
:1037E00085B7806885BF85B7806885BF84B7877FC8
:1037F00084BF0FB6F894A89580916000886180938B
:103800006000109260000FBE80E890E00FB6F89460
:1038100080936100909361000FBE8AEA98E09093D4
:103820007901809378010E94A70A0E940F0B809172
:10383000E20084608093E20078948091DA0181153F
:1038400099F08091E9001091EC00179511271795D8
:103850008F70182B1092E9008091E80083FD0E9480
:1038600005111F701093E90082E084BD93E095BDBF
:103870009AEF97BD80936E00109242041092430419
:1038800010924404109245048091D8008061809386
:10389000D8002AE12A95F1F700C01091D9001170E3
:1038A000111104C00E94A70A1092DA01109340047B
:1038B000109341041093000111110E94C0238091C4
:1038C00000018091000191E08927880F880F809383
:1038D000D70194E0981B9093D60184E90E94AC082C
:1038E00086E60E94AC0887E90E94AC0886EC0E943C
:1038F000AC0802E311E0F8E3CF2EF1E0DF2ED801AF
:103900008D918D018F3F11F00E94AC08C016D10639
:10391000B1F788E0EBEDF1E0DF01282F1D922A9549
:10392000E9F7EEECF1E0DF011D928A95E9F780E01E
:1039300090E00E94DD25863E9E4F09F466C066EE4B
:103940007EEF80E090E00E94112660E082E090E04F
:103950000E94F32581E090E090939D0480939C0465
:1039600061E083E090E00E94F32560E074E184E090
:1039700090E00E94112660E086E090E00E94F3252E
:103980006FEF87E090E00E94F32540E050E0BA013D
:1039900088E090E00E94052660E084E290E00E94CA
:1039A000F32560E087E190E00E94F32560E08CE081
:1039B00090E00E94F32560E08DE090E00E94F32506
:1039C00019821A821B821C821D821E821F82188607
:1039D00048E050E068E170E0CE0101960E94E325E6
:1039E00040E050E0BA0180E290E00E94052640E00D
:1039F00050E0BA018FE090E00E94052640E050E0E0
:103A0000BA0183E190E00E94052682E090E00E94E6
:103A1000D5258093E30184E090E00E94DD2590931A
:103A2000A2048093A1040E94871AEFEFF6E721E039
:103A3000E150F0402040E1F700C000000E94871AEA
:103A4000E091410411E0E127EE0FEE0FF0E0E552C6
:103A5000FE4F808181FF08C06FEF7FEF80E090E034
:103A60000E9411260E94890B83E090E00E94D525D8
:103A700090E00E940F05809140048127880F809379
:103A8000160480E88093EE010E946B226BE070E0E8
:103A900082E797E00E94C50D811509F43FC080912F
:103AA000160465E070E081FDABC08DE697E00E94F2
:103AB000C50D811599F16DE070E08BE597E00E94EE
:103AC000C50D811559F10E94D609DC01CB01805A40
:103AD0009541AF4FBF4F80931A0490931B04A0935E
:103AE0001C04B0931D04E6E1F2E080E092E0DF0107
:103AF0009C011D9221503040E1F7F093ED01E093DD
:103B0000EC018FEF9FEF909319048093180481E0EC
:103B10008093210480931E04109217048091400426
:103B2000811102C00E94C32381E091E09093690457
:103B300080936804CE010196EAE04E2E512C612C50
:103B4000712C8C879D878091DA01853049F48091B2
:103B5000DA01853009F457C00E94BE100E9418098E
:103B60000E94871A04EE11E07BEDC72E71E0D72E7C
:103B7000D601F80191918D912CEE31E02E173F077F
:103B800009F494C09817B1F320904004B12CD601E9
:103B9000AD906D01F80131908F013A1441F13A2452
:103BA000912C88248394832D88218115C1F02114C0
:103BB000B1F09982BA820E94150F9C838B83F1E049
:103BC000FD8391E08A2D8821811101C090E09E83C0
:103BD00049815A816B817C818D810E94DF19939488
:103BE000880C26E09212DFCFF8013197A082B394BF
:103BF00038E0B312CCCF0E94E20981E089875BC034
:103C000088E697E054CF8091DA01843031F10E9448
:103C1000F20D1092D80188E190E0A0E40FB6F8947C
:103C2000A895809360000FBEA093600083B7817F4A
:103C3000846083BF83B7816083BF7894889583B79E
:103C40008E7F83BF0FB6F894A8958091600088613D
:103C500080936000109260000FBE8091D9018115A1
:103C600009F475CF0E94871AEBEDF1E08191811183
:103C700005C0B1E0E33EFB07C9F769CF80E189BD2C
:103C800082E189BD09B400FEFDCF8091D8008F7D0F
:103C90008093D8008091E00082608093E000809162
:103CA000E00081FDFCCF0E94BE1051CF98136CCF75
:103CB0000E94641A198680912104811509F4ABC011
:103CC00080911F04909120040E94B713C29708F4BA
:103CD00082C00E94150F9093200480931F0486E1F8
:103CE00092E09093ED018093EC0180914004811566
:103CF00009F4BDC186EE97E00E94DA0E20919E0481
:103D000090919F04E92EF12C88E0E114F10419F45C
:103D100080E0E22EF92E970164E0369527956A95AA
:103D2000E1F72115310511F08C5F79019701369586
:103D30002795369527952115310511F08E5F79016C
:103D4000970136952795232B09F44CC18F5F83305B
:103D500008F04FC188ED97E00E94E80E809196042C
:103D6000805D0E94280E83EC97E00E94DA0E80911D
:103D70009504805D0E94280E8FEB97E00E94DA0E7A
:103D8000809093049090940420910B0130910C0149
:103D90008216930609F038C12091F501203209F00E
:103DA00033C1EFEEF1E08F0181918032E1F3F80150
:103DB00001900020E9F79F012150310969010C159C
:103DC0001D0508F44EC18DEB97E00E94DA0E80913C
:103DD0002D010E94280E8091180490911904892BBE
:103DE00009F04AC180911E048115A9F00E94D609EC
:103DF00000911A0410911B0420911C0430911D04A1
:103E0000601B710B820B930B6F3F7F4F8F4F9F4750
:103E100010F40E94F20D898581110E94040E86E043
:103E2000EDE8F4E0AC85BD8501900D928A95E1F74F
:103E3000B0908E04D0908F0410919004C0909104A3
:103E40000091920410928F041092900410929104A9
:103E500010929204812F8D29811509F445C080911B
:103E60002404909125040E94B7139C0180918B0437
:103E7000811509F4E6C125313105B0F18F3F19F004
:103E80008F5F80938B04D11459F00E94D30891E086
:103E90001D140CF09FEF899F802D112480938F04B7
:103EA000111559F00E94D30891E011160CF09FEF04
:103EB000899F802D11248093900480918F04811517
:103EC00099F0A0909004A11479F00E94C508811186
:103ED00001C081E080938F048A2D0E94C50881155E
:103EE00009F4A6C180939004802F8C29811509F4D0
:103EF00045C080912204909123040E94B7139C0135
:103F000080918A04811509F497C121353105B0F1FA
:103F10008F3F19F08F5F80938A04C11459F00E947B
:103F2000F30891E01C140CF09FEF899F802D112461
:103F300080939104011559F00E94F30891E0101646
:103F40000CF09FEF899F802D112480939204809123
:103F50009104811599F0C0909204C11479F00E94E7
:103F6000C508811101C081E0809391048C2D0E94CD
:103F7000C508811509F45EC18093920480918E0476
:103F8000B81219C080918F04811511F08D1113C0E2
:103F900020919004211511F012130DC090919204FC
:103FA000911511F0091307C030919104311103C02C
:103FB000822B892B81110E94210F86E0EC85FD85E3
:103FC000ADE8B4E001900D928A95E1F70E941809DE
:103FD00090912604891709F4B6CD809326040E9497
:103FE000D609B1CD823051F0833028F48EED97E0C0
:103FF000B3CE833031F085EC97E0AECE82ED97E022
:10400000ABCE8BEC97E0A8CE90920C0180920B0186
:1040100020E22093F501A12CB12C1092F40124EFA1
:10402000C22E21E0D22E00E010E0C501B401A301B0
:1040300092010E948E25605D603341F401151105E7
:1040400029F089288A288B2809F460E2D6016E932A
:104050006D0149015A010F5F1F4F0530110529F706
:10406000A0CED8018D918D010E94280EA8CE8DE79B
:1040700097E00E94DA0EAFCE80912104811509F4F9
:10408000B1CE809117048111ADCE0E94040E209113
:104090001804309119042115310509F4A3CE80E0EC
:1040A00041E050E0882E912C1A01082E02C0220C0B
:1040B000331C0A94E2F7B10162237323672B11F4D6
:1040C0008F5FF0CF9091160490FF9EC0880F880FED
:1040D000880F37E0380F20E093E080930F012093A2
:1040E0001201309310019093130124E630E047E071
:1040F00050E06DE071E088E70E941023892B09F001
:1041000071CE85E0880C991C8A95E1F780911604A0
:1041100080FF86C0E6EFF1E080E2DF011D928A9524
:10412000E9F7ECE3F1E0F98BE88B48E351E007E0D5
:10413000DD24D394A889B9896D91B98BA88BFA0134
:104140008191AF01880D992D911D9C012A5E3D4FF3
:104150003F872E87E62FF0E0EA50FE4F80E090E0A8
:10416000A02EA81A1D2D082E01C0110F0A94EAF7DF
:10417000AE85BF85BB87AA8770E0AA85BB856D9198
:10418000BB87AA8761232A2D271B277030E0B62F13
:10419000022E01C0BB0F0A94EAF73195219531092F
:1041A0002770332701C066952A95EAF76B2B20818B
:1041B000622B60837F5F783001F7019631968830FB
:1041C000910571F6E0E4F1E028893989E217F307F7
:1041D00009F0B0CF04E610E020E230E046EF51E015
:1041E00060E488E70E943723892B09F0FBCD2094F7
:1041F0003094809118049091190482219321909316
:10420000190480931804EECD9401369527953695C0
:104210002795922F8295880F80763FE1380F5DCFEA
:10422000A4014A5E5D4F04E610E020E230E0D8CF02
:1042300081E058CE81E0A0CE2B30310508F06ACE67
:104240009DCE2B30310508F01BCE4ECE78941F92B8
:104250001FB61F9211248F939F93AF93BF938091AA
:104260002B0490912C04A0912D04B0912E04019662
:10427000A11DB11D80932B0490932C04A0932D04B9
:10428000B0932E04BF91AF919F918F911F901FBE4D
:104290001F9018951F920F920FB60F9211242F9313
:1042A0003F934F935F936F937F938F939F93AF93BE
:1042B000BF93EF93FF938091E10082FF09C080914B
:1042C000E20082FF05C08091E1008B7F8093E100D6
:1042D0008091DA0080FF24C08091D80080FF20C048
:1042E0008091DA008E7F8093DA008091D90080FF80
:1042F0009BC080E189BD82E189BD09B400FEFDCF8C
:1043000081E08093DA018091B801811109C00E9497
:10431000A70A0E940F0B8091E20084608093E20064
:104320008091E10080FF17C08091E20080FF13C000
:104330008091E2008E7F8093E2008091E2008061B4
:104340008093E2008091D80080628093D80019BCED
:1043500085E08093DA018091E10084FF29C080919B
:10436000E20084FF25C080E189BD82E189BD09B4F6
:1043700000FEFDCF8091D8008F7D8093D800809182
:10438000E1008F7E8093E1008091E2008F7E809338
:10439000E2008091E20081608093E2008091B701A9
:1043A000811509F447C084E08093DA018091DA0135
:1043B0008091E10083FF27C08091E20083FF23C04A
:1043C0008091E100877F8093E10082E08093DA01B1
:1043D0001092B7018091E1008E7F8093E10080917F
:1043E000E2008E7F8093E2008091E2008061809302
:1043F000E20042E060E080E00E94DF0A8091F0008D
:1044000088608093F000FF91EF91BF91AF919F91F1
:104410008F917F916F915F914F913F912F910F906D
:104420000FBE0F901F90189519BC1092DA011092D0
:10443000B80176CF8091E30087FF02C083E0B4CF5C
:1044400081E0B2CF1F920F920FB60F921124FF920C
:104450000F931F932F933F934F935F936F937F938C
:104460008F939F93AF93BF93CF93DF93EF93FF937C
:1044700009EE10E0F8018081C091EC00C795CC27CF
:10448000C7958F70FC2EF82A1082C0EFD0E088818B
:10449000877F888378940E940511F80110828881B3
:1044A00088608883CF2DCF70C083FF91EF91DF911B
:1044B000CF91BF91AF919F918F917F916F915F91BC
:1044C0004F913F912F911F910F91FF900F900FBE31
:1044D0000F901F9018951092B9008CE08093B8004F
:1044E0000895A0E0B0E0E7E7F2E20C943E25B82E94
:1044F000EB010E94150F6C01EE24E394F12CC43102
:10450000D10560F025E0E22EF12CCF3FDC0731F041
:10451000CE0164E170E00E9423257B0184EAA82E8D
:1045200094E8992E1092BC00A092BC000E94150F36
:10453000182F092F8091BC0087FF0CC08091B90013
:10454000887F8830F9F08091B900887F8031D1F080
:104550000FEF08C0812F902F0E94B713E816F906BD
:1045600048F70EEF1FEFCF3FDC07E1F2C6010E94D4
:10457000B713C817D907B0F6C801CDB7DEB7EBE05F
:104580000C945A25B092BB009092BC000E94150F6B
:10459000182F092F8091BC0087FF0AC02091B90015
:1045A000287F283111F0203499F600E010E0E4CFA4
:1045B000812F902F0E94B713E816F90658F7D1CF34
:1045C0000F931F93CF93DF93EB018093BB0084E89D
:1045D0008093BC000E94150F182F092F8091BC00FA
:1045E00087FF11C02091B900287F81E090E0283238
:1045F00011F480E090E0919581959109DF91CF9140
:104600001F910F910895CF3FDC0741F3812F902F29
:104610000E94B713C817D90708F78EEF9FEFEECFA8
:10462000A0E0B0E0E6E1F3E20C9441256B018A01E1
:10463000F22EE32E622F732F0E947122AC01E6014D
:104640000C0D1D1DC017D10711F057FF09C084E9DB
:104650008093BC00CA01CDB7DEB7E8E00C945D25BD
:104660006F2D7E2D89910E94E022AC01EBCFA0E05E
:10467000B0E0EDE3F3E20C944125C62F6A01790125
:10468000B8010E9471229C0197FD0DC0B8018C2FCA
:104690000E94E0229C01E601EC0CFD1CCE15DF051A
:1046A00011F037FF09C084E98093BC00C901CDB780
:1046B000DEB7E8E00C945D25B80189910E94E02204
:1046C0009C01ECCF84E98093BC0008958EE14A9B65
:1046D00002C08A95E1F74A9BFECF08955A9880E27E
:1046E0008A95F1F75A9A0895FC013BE03A95F1F763
:1046F00098E020E080E031E040E14A95F1F7880F52
:104700004A9B02C08160232742E04A95F1F70000EE
:1047100040E14A95F1F79A9579F790E19A95F1F78A
:1047200099B132E03A95F1F7000040E14A95F1F78E
:1047300092FB992790F992272081920F90830895F8
:10474000A1E0B0E0E6EAF3E20C94432519828C0183
:104750007C01E60EF11C0E151F0541F481E09981E4
:10476000911180E02196E6E00C945F250E9466237B
:10477000CE0101960E947423F80181938F01EBCF43
:10478000529A5A9A089552985A9AEA9AE9E6F0E0AB
:1047900080818F7C808308956150770B91E001C008
:1047A000990F6A95EAF7692F90E021E0611108C03E
:1047B000911599F05A9A80E28A95F1F75A980895DE
:1047C000362F3823311539F05A9A922730E23A952C
:1047D000F1F76695EBCF5A98F9CF5A98ECCFFF9244
:1047E0000F931F93CF93DF93EC018C01060F111DE4
:1047F000C017D10729F4CDB7DEB7E5E00C946025EA
:10480000F9900E946E2368E08F2D0E94CC23F0CF98
:104810001F920F920FB60F9211240F931F932F9395
:104820003F934F935F936F937F938F939F93AF9338
:10483000BF93EF93FF93CF93DF930F92CDB7DEB784
:1048400019820E946623CE0101960E947423082FCC
:10485000069506950695982F92959570202F2570B0
:10486000920F292F237096959695920F98279770FF
:104870008981892B811509F05CC0043008F059C08A
:1048800080E18A95F1F75A9A529A82E08A95F1F777
:1048900000C05A9888E0089F80011124D801AC5EBE
:1048A000BE4F1696ED91FC9117973097A9F0609145
:1048B00040017091410114962D913C911597260F5E
:1048C000371F11968D919C911297680F791F13963F
:1048D0004C9113978C910995F801EC5EFE4F638122
:1048E000611551F020914001309141018481958101
:1048F000820F931F0E94EF230E946E2380E18A950E
:10490000F1F75A9852985A9A80E18A95F1F7F8018E
:10491000EC5EFE4F6081611551F0209140013091B5
:10492000410181819281820F931F0E94A0230E94E6
:1049300066230F90DF91CF91FF91EF91BF91AF91DF
:104940009F918F917F916F915F914F913F912F91A7
:104950001F910F910F900FBE0F901F9018950F93FE
:104960001F93CF93DF938C0104970CF064C0F894ED
:10497000529A5A9885E08A95F1F70000C02FC695A3
:10498000C570802F8570C80F8C2F8370C695C69513
:1049900093E0000F111F9A95E1F7C80FC8018C2B07
:1049A000EC010E946E2300C068E08C2F0E94CC2393
:1049B00090E19A95F1F752985A9A4A9B35C087E050
:1049C00090E04A9933C0F801EC5EFE4F63816115B7
:1049D00061F0209140013091410184819581820FE5
:1049E000931F0E94A023811519F10E94662380E283
:1049F0008A95F1F75A98529A90E19A95F1F7F80151
:104A0000EC5EFE4F6081611551F0209140013091C4
:104A1000410181819281820F931F0E94EF230E94A6
:104A20006E23789481E008C000C0C7CF019749F495
:104A3000529A5A9A789480E0DF91CF911F910F910A
:104A4000089500C0BECFAA1BBB1B51E107C0AA1F1F
:104A5000BB1FA617B70710F0A61BB70B881F991F1F
:104A60005A95A9F780959095BC01CD0108952F9294
:104A70003F924F925F926F927F928F929F92AF92EE
:104A8000BF92CF92DF92EF92FF920F931F93CF933B
:104A9000DF93CDB7DEB7CA1BDB0B0FB6F894DEBFD2
:104AA0000FBECDBF09942A88398848885F846E84F8
:104AB0007D848C849B84AA84B984C884DF80EE8042
:104AC000FD800C811B81AA81B981CE0FD11D0FB64B
:104AD000F894DEBF0FBECDBFED010895991B79E0BC
:104AE00004C0991F961708F0961B881F7A95C9F77E
:104AF0008095089597FB072E16F4009407D077FD54
:104B000009D00E94232507FC05D03EF4909581959D
:104B10009F4F0895709561957F4F0895A1E21A2ED9
:104B2000AA1BBB1BFD010DC0AA1FBB1FEE1FFF1F51
:104B3000A217B307E407F50720F0A21BB30BE40BA1
:104B4000F50B661F771F881F991F1A9469F76095E8
:104B50007095809590959B01AC01BD01CF010895A2
:104B6000EE0FFF1F0590F491E02D0994FB01DC018D
:104B700002C005900D9241505040D8F70895FB01B6
:104B8000DC0104C08D910190801921F44150504006
:104B9000C8F7881B990B0895FB01DC0102C0019046
:104BA0000D9241505040D8F70895F999FECF92BD2B
:104BB00081BDF89A992780B50895A8E1B0E042E058
:104BC00050E00C941926DC01A40FB51F4150504051
:104BD00048F0CB01840F951F2E910E94F42541507F
:104BE0005040D0F70895262FF999FECF92BD81BD90
:104BF000F89A019700B4021639F01FBA20BD0FB61B
:104C0000F894FA9AF99A0FBE08950396272F0E94F6
:104C1000F4250E94F325252F0E94F425242F0C94BF
:104C2000F4250196272F0E94F4250C94F325DC012E
:104C3000CB01FC01F999FECF06C0F2BDE1BDF89AA7
:104C4000319600B40D9241505040B8F70895F89451
:104C5000FFCF680F700F730F790F8E0F8E0F8E0FAF
:104C60008E0F8E0F8E0F8E0F8E0F7C0F810F850F84
:104C70008B0F9C0FA20FA60FE21109120F1209123F
:104C80000F12621284120F1282138F1307157115FF
:104C90000F15D914DD141315E11417152315ED1490
:104CA0006A15F1142715F5142B155215F9142F1543
:104CB0005915FF1435153D15E5141B15E9141F157D
:104CC00003153915491562156815D3140B15781598
:104CD000B014B4149214AC14B814BC14C0141F163D
:104CE0001F1656165616ED160A17801680160F1741
:064CF0009B17AC17AC1786
:104CF60001FC09E70BFE0B050C0C0CFF0000210064
:104D06007F220003000000010000000000000004F4
:104D16000100000004050000000000000120946668
:104D260097C6F4F5F6F73133000810181810080086
:104D36002F04E200E900EA00B500B600B700CD0096
:104D46008301CC008A0192019401210223022402EC
:104D56002502260227022A02B300B4006F00700063
:084D66009F01CB019F02A00296
:00000001FF
